:020000040000FA
:10000000A00120208D01000091010000930100005B
:1000100000000000000000000000000000000000E0
:10002000000000000000000000000000950100003A
:10003000000000000000000097010000990100008E
:100040009B0100009B0100009B0100009B01000040
:100050009B0100009B0100009B0100009B01000030
:10006000000000009B0100009B0100000000000058
:10007000000000009B0100009B0100009B010000AC
:10008000550C00009B0100009B0100009B0100003B
:100090009B0100009B010000000000000000000028
:1000A0009B0100009B010000000000000000000018
:1000B0009B010000000000009B0100009B0100006C
:1000C00000F002F800F052F812A030C808382418E6
:1000D0002D18AC4201D100F049F80FCCA246AB4636
:1000E0000CA730CF2D1B083F3F197C427F1E544484
:1000F0002D090426F441641EAC4201D300F036F809
:100100000126334200D0FB1A3343984754465D46DC
:10011000DFE700001423000034230000000000008B
:10012000103A02D378C878C1FAD8520701D330C840
:1001300030C101D504680C60704700000000000069
:100140007047000000000000002300240025002666
:10015000103A01D378C1FBD8520700D330C100D583
:100160000B6070471FB51FBD10B510BD00F0AEF895
:100170001146FFF7F7FF01F0A3F800F0C6F803B44B
:10018000FFF7F2FF03BC00F01BF900000648004730
:10019000FEE7FEE7FEE7FEE7FEE7FEE70348044969
:1001A000024A044B70470000C1000000A00020205C
:1001B000A0012020A000202070477047704710B594
:1001C00001469E240002CA15A307002A02D0184344
:1001D000002A04DBA21A002A0CDDD04010BD120652
:1001E000120E01D140004008A21A03D4D040404270
:1001F0000028F3DDFF2248001206904201D90020BA
:1002000010BDC817C043584010BD1F22030C02D1B7
:100210000F2200041CD0030E01D10002083A030F84
:1002200001D10001121F830F01D18000921E00280E
:1002300001DB4000521ED20551180212511819223A
:10024000904004D3491C002801D1490849000846C0
:100250007047C10FC90700D04042012292071143E5
:10026000D3E701218907D0E710B5FF231B0644001F
:100270009C421DD84C009C421AD80346124A0B439C
:1002800007D4401A02D3EFF3008010BDEFF30080D3
:1002900010BD081A03D3EFF30080904305E0EFF39D
:1002A000008001219043C907084380F3008810BDF6
:1002B0000D231B041A4204D01146002000F02DF833
:1002C00010BD00F041F810BD00000090754600F030
:1002D00043F8AE46050069465346C008C00085464F
:1002E00018B020B5FFF75AFF60BCB64600260027BD
:1002F000C0C5C0C5C0C5C0C5C0C5C0C5C0C5C0C5D6
:10030000403D490849008D46704710B50446C04637
:10031000C0462046FFF733FF10BDC80212D5480380
:10032000400F002804D0C803C04301218840704713
:10033000EFF300800001000903210907084380F35F
:10034000008870470020704710B5024800F008F898
:1003500010BD00000000C07F00487047180020203A
:1003600010B50C461107090F092904D00A290AD033
:1003700008290CD104E011460820FFF7CEFF06E063
:10038000510606D501E0510601D50120C0072146DE
:1003900010BDD10607D501010909CC084907000E97
:1003A0000006044309E0410F20024907000A014307
:1003B000200E00061D22D14101430846E7E7000058
:1003C00001491820ABBEFEE7260002007047811EDF
:1003D000091F00BFFCD27047F0B582B0002A31D0AF
:1003E00091235B01C3180220801A019000925542AC
:1003F0000F2006020320DC69344227D00F18FC1EB0
:1004000024781C602C18022C1AD0DA6932421FD0D2
:10041000BA1E12781A60019A1218032A10D0DA69EB
:10042000324217D07A1E12781A60002C08D0DA698E
:10043000324208D00A5C1A60001D2A18032ADAD159
:10044000009800E0002080B202B0F0BDC01EFAE7C4
:10045000801EF8E7401EF6E710B50F4A835880214A
:100460000B43835080180122D2020F231B024468E1
:100470001C4094420BD044681C40944207D044680E
:100480001C40944203D044681C409442EFD102685F
:100490008A43026010BDC0463812000070B50A7869
:1004A0000C231A400124240305196E689E43B218D8
:1004B0006A60497807221140035993435918015142
:1004C00070BD0000B0B5364A80184A6842600A78AC
:1004D000222A57D8930001A4E3589F467B050000C9
:1004E000850500007B0500008505000085050000EE
:1004F00085050000850500008505000085050000D4
:1005000085050000850500008505000085050000C3
:1005100085050000850500008505000069050000CF
:1005200085050000690500008505000085050000BF
:100530008505000085050000850500008505000093
:100540008505000085050000850500008505000083
:10055000850500008505000085050000690500008F
:10056000850500006905000003231B0704689C4300
:1005700001235B07E318036004E003231B070468FF
:100580009C4304600B8AC360CB68064C1C40C36A62
:10059000054D1D402B19C362097A11430160B0BD9E
:1005A00004180000777702008888FDFF10B501224B
:1005B000120383180C789C604B7883508978014A29
:1005C000815010BD0C110000F0B587B00020194F0C
:1005D00005460190B03003AA10703C20029000261E
:1005E00001243146234600F023FD04AA1020107098
:1005F00002983146234600F01BFD05AA14700298AC
:100600003146234600F014FDE8B280244440785D72
:1006100006AA10703C204021012300F009FD6D1C4A
:10062000E8B28442F3D10199481C0729D1D307B01D
:10063000F0BDC046EC1F0000F0B589B0029206463E
:100640007E2800D9491C503905AA11703C2000278A
:100650000123049039461D4600F0EAFC7E2E3C46FC
:1006600000D834462009103006AA1070049E304687
:1006700039462B46039500F0DBFC0E202040401C41
:1006800007AA1070304639462B4600F0D1FC02987C
:100690002038C0B2062444436048005D08AE307084
:1006A0004027049D2846394602973246039B00F0B6
:1006B000BFFC5A48001901904078307028463946EE
:1006C0003246039C234600F0B3FC019FB87830709B
:1006D000284602993246234600F0AAFCF87830708A
:1006E0002846029F39463246234600F0A1FC019C71
:1006F00020793070284639463246039D2B4600F05B
:1007000097FC607930700498394632462B4600F0E9
:100710008FFC09B0F0BDC046F0B58BB000921478E4
:10072000002C79D000225FE00590000910210143E0
:1007300008AA117038462946334600F079FC0E208D
:1007400005990840401C09AA1070384629463346CE
:1007500000F06EFC203CE0B2334604970626464388
:100760002E48805D0AAC2070402506953846294603
:1007700022461F4600F05CFC284880190190407812
:100780002070049E3046294622463B4600F050FC2D
:10079000019DA87820703046069922463B4600F01D
:1007A00047FCE87820703046069922463B4600F028
:1007B0003FFC287920703046069E314622463B4653
:1007C00000F036FC687920700498314622463B469A
:1007D00000F02EFC029A521CD0B200990C5C0598D5
:1007E000801D002C039917D07E280292069000D914
:1007F000491C03910846503807AA10703C20002578
:100800000123074629461E4600F012FC06997E2960
:10081000284689D8084687E70BB0F0BDC41D000004
:10082000F0B589B004465039019102AA11703C27F5
:100830000025012638462946334600F0F9FB03AA75
:10084000167038462946334600F0F2FB04AA102001
:10085000107038462946334600F0EAFB05AA019895
:10086000107038462946334600F0E2FB200910306C
:1008700006AA107038462946334600F0D9FB0E20F0
:100880002040401C07AA107038462946334600F025
:10089000CFFB60B200280AD408AA15703C20402182
:1008A000012300F0C5FB601C44B2002CF4D509B054
:1008B000F0BDF0B587B00446002001900290B03042
:1008C00003AA10703C2701263846019D294633466D
:1008D00000F0AEFB04AA167038462946334600F0F5
:1008E000A7FB05AA1020107038462946334600F0B1
:1008F0009FFB06AA14703C204021012300F098FBC6
:10090000681C45B2002DF4D50299481C0729D5D39F
:1009100007B0F0BD80B582B001AA10703C20002164
:10092000012300F085FB02B080BD0000B0B50121BD
:10093000880403468433114A536013604B0654689D
:100940001C43546014681C4314600D4B81245C608C
:100950001C601546383D2C609C620A4C5C611C652D
:10096000DC60546403221203074B1A611960511CA6
:100970001964064908600863B0BDC0463C80424027
:10098000888042408100060090120A40A0320A404E
:1009900080B511481149FFF781FD0320410210483D
:1009A00002680A43026001210A02036813430360DC
:1009B000002242611F224262826B07239A438263B4
:1009C0001A02836B93438363826A04231343836213
:1009D000826A0A43826280BD00200F400C2400001E
:1009E00000320F40044800210160044801680322DE
:1009F000914301607047C04608030B4000010B4063
:100A000010B5084C08492046FFF7D0FD074920469D
:100A1000FFF758FD064801680122114301600548AF
:100A2000026010BD004008400E24000014240000A5
:100A3000285008400851084080B500F009F8FFF739
:100A400075FFFFF7CFFFFFF7DBFFFFF7A1FF80BDCB
:100A500010B5094809494160094A5160094B59607C
:100A6000094C616009490160116019602160102022
:100A7000FFF7ADFC10BDC04600080A40030000B1FE
:100A800000280A400048084000280F4001000026C6
:100A9000B0B52F490A782F480388012B0FD1012ABE
:100AA0000DD100222D4B9B560222032B2CD89B00EC
:100AB0002B4CE3582B4C2468E318D24C23E0022B38
:100AC00010D1012A0ED10022244B9B560322032B66
:100AD0001AD89B0025A4E3585D4C2468E318C94C40
:100AE00023600FE0032B28D1012A26D100221B4BC3
:100AF0009B560422032B07D89B00194CE358194C32
:100B00002468E318184C2360028000200870BD4858
:100B10000068FFF7A6FB024600252846294600F09C
:100B200083FA11480068FFF79CFB0246012428461F
:100B3000214600F079FA2046B0BD042BE7D1012A06
:100B4000E5D1054900240C60012101802046B0BD9B
:100B50008800202008002020000020208A0020207B
:100B6000FC2300001000202090002020A0F6FFFFB2
:100B700010F5FFFF48F4FFFFA0F6FFFFB0B59E4958
:100B80000A789E480388012B0CD1012A0AD1002241
:100B90002D4B9B560222032B3CD89B002B4CE35839
:100BA0009A4C36E0022B10D1012A0ED1264A137836
:100BB0000322032B2ED8C0467B441B795B009F4445
:100BC0001D010120224B1B6820E0032B0BD1012AC1
:100BD00009D100221C4B9B560422032B1AD89B00E0
:100BE0001A4CE35814E0042B17D1012A15D184497B
:100BF00000240C60012101802046B0BD19235B0157
:100C000001E04B231B01124C2468E3187F4C236046
:100C10007C4C23600280002008707A480068FFF74F
:100C200020FB024600252846294600F0FDF97748BA
:100C30000068FFF716FB024601242846214600F013
:100C4000F3F92046B0BDC0468A002020EC23000006
:100C50001400202070B520480068C0B2012832D1AD
:100C6000EE49086800221D4B0028144605D00120DB
:100C7000400318600868441E0C607D204001E84D68
:100C80002E68002E08D0024660321A602A68521E72
:100C90002A60531E9A410C68002A04D1002C02D10C
:100CA000D14901220A70D8490A68002A0CD0824230
:100CB00004D1012080040A4A10600A68094882426F
:100CC00001D8501C086070BD01229204044B1A60C8
:100CD0000A688242EDD0F1E720500840B0120A4085
:100CE000B0320A4087130000B0B5BF490A78BF4848
:100CF0000388012B06D1012A04D1C84ABF4B1360D7
:100D0000022254E0022B08D1012A06D1C44AB94B71
:100D10001360C24A1360032249E0032B07D1012A62
:100D200005D13C4A6432BD4B1A6004223FE0042BDB
:100D300009D1012A07D1B54A1268B84B1A60B84BDD
:100D40001A60052233E0052B06D1012A04D1B34AEB
:100D5000304B136006222AE0062B09D1012A07D165
:100D6000AA4A1268AD4B1A60AD4B1A6007221EE00A
:100D7000072B06D1012A04D1A84A254B136008226B
:100D800015E0082B0BD1012A09D1A04A12681E4B8D
:100D9000D218A24B1A60A24B1A60092207E0092B55
:100DA0001ED1012A1CD19D4A9B4B13600A2202804E
:100DB0000020087099480068FFF753FA02460025A2
:100DC0002846294600F030F995480068FFF749FAAF
:100DD000024601242846214600F026F92046B0BDEF
:100DE0000A2BE7D1012AE5D1874900240C600121B3
:100DF00001802046B0BDC046880020200800202089
:100E0000000020208C002020A0F6FFFF9000202072
:100E10000A0C0000DE0A0000B0B572480078002815
:100E20000CD001284AD1704A1378704801880129F2
:100E30000FD1012B0DD10221704C21E06A480178BD
:100E40006A480288012A0DD101290BD10220684984
:100E50002DE002290DD1012B0BD10321654C6F4BE5
:100E60001C600DE0022A42D1012940D103206149D2
:100E70001BE0614C03294BD1012B49D1C83404211B
:100E800000231370664A1460018001221C465440FE
:100E90000A254D4025436C426C41624D2D78032D4F
:100EA00022D1002C2AD00B2059495C4A11604E4AAD
:100EB000002313705A4A11604C4908805748006853
:100EC000FFF7CFF9024600252846294600F0ACF886
:100ED00053480068FFF7C5F9024601242846214619
:100EE00000F0A2F82046B0BD002CE7D00AE0032AAB
:100EF00016D1012914D104203F49D8E70B29DDD1AF
:100F0000012BDBD1404900240C6002802046B0BD9B
:100F100004290DD1012B0BD13C490C6805219EE71A
:100F2000042A0CD101290AD1384801680520BCE700
:100F300005290CD1012B0AD164340621A0E7052A2A
:100F40000DD101290BD12D4964310620AFE70629C7
:100F50000DD1012B0BD12D490C6807217FE7062A03
:100F60000DD101290BD12948016807209DE70729E8
:100F70000CD1012B0AD1264C5234082180E7072AD4
:100F80000BD1012909D108201D4990E708290CD16E
:100F9000012B0AD109211F4C61E7082A0ED1012932
:100FA0000CD11A48016809207FE7092900D06CE7B5
:100FB000012B00D069E70A21174C61E7092A04D107
:100FC000012902D10A200F4971E70A2A00D075E7EA
:100FD000012900D072E70C4900240C600121018036
:100FE0002046B0BD8200202088002020080020205C
:100FF0005A0700008F1F00007A0A00004E09000007
:10100000360D0000FC050000000020200400202018
:10101000B80B0000B52100003A0400008C0020202D
:10102000900020208A00202080B500F011FB80BDB8
:10103000F0B581B01C46154600902A4801702A4838
:1010400011461A46FFF7C8F9284F3868800608D4B9
:101050003868800605D43868800602D4386880066F
:10106000F3D5214E3046FFF7F7F91E4901223046ED
:10107000FFF7B2F93846083801681D4A0A4000995E
:10108000490051180160381F01681A4A0A40611C62
:1010900009045118C91D0160002601E0A64213D2BF
:1010A000786A0005400FF9D0A91901220E48FFF710
:1010B00093F9761CF2E73868400608D53868400690
:1010C00005D53868400602D538684006F3D438683C
:1010D000800700D500BE7D20C000FFF778F92046CC
:1010E00001B0F0BD8900202000200F4018320F40D1
:1010F00000F8FFFFF8FF00F0F0B581B07D2004029A
:1011000001256D4F3868800331D46E042046FFF707
:101110005EF92046FFF75BF92046FFF758F92046B5
:10112000FFF755F92046FFF752F92046FFF74FF930
:101130002046FFF74CF92046FFF749F92046FFF714
:1011400046F92046FFF743F9386830420FD1386836
:10115000304208D13868304205D13868304202D177
:1011600038683042F3D0DC480570D64805603868EE
:10117000C00132D42E062046FFF729F92046FFF79A
:1011800026F92046FFF723F92046FFF720F92046ED
:10119000FFF71DF92046FFF71AF92046FFF717F968
:1011A0002046FFF714F92046FFF711F92046FFF714
:1011B0000EF93868304210D13868304208D13868AA
:1011C000304205D13868304202D138683042F3D01D
:1011D000C14802210170BB480560EE033868000475
:1011E00031D42046FFF7F3F82046FFF7F0F8204609
:1011F000FFF7EDF82046FFF7EAF82046FFF7E7F89B
:101200002046FFF7E4F82046FFF7E1F82046FFF715
:10121000DEF82046FFF7DBF82046FFF7D8F83868FD
:10122000304210D13868304208D13868304205D198
:101230003868304202D138683042F3D0A6480321E2
:101240000170A04805601D4F3868304231D12046FA
:10125000FFF7BDF82046FFF7BAF82046FFF7B7F8CA
:101260002046FFF7B4F82046FFF7B1F82046FFF715
:10127000AEF82046FFF7ABF82046FFF7A8F8204667
:10128000FFF7A5F82046FFF7A2F83868304210D1E2
:101290003868304208D13868304205D13868304269
:1012A00002D138683042F3D08B4804210170854860
:1012B000056001B0F0BDC04680130A4080330A408B
:1012C00082B0FFF7B9FB0125A8047E49086000F051
:1012D00011F928047C4908607C48016829430160B1
:1012E000002630463146FFF79BFA79480068FEF742
:1012F000B8FF024630463146FFF796FE754C20682F
:10130000FEF7AFFF02460196304600952946FFF7EB
:101310008BFE744F744D05E0019871490870019877
:101320006D490870FFF7E8FE6B480078401E0328FF
:10133000F8D8C0467844007940008744170191A549
:101340000198674908703DE061480068FEF789FF31
:101350000246002630463146FFF766FE2068FEF75B
:1013600080FF024601213046FFF75EFE387829886B
:1013700001290BD1012809D1019838700220288059
:101380005B480068524908602060DFE70229DBD132
:101390000128D9D101985549086000982880BEE7F6
:1013A0004B480068FEF75DFF024600263046314696
:1013B000FFF73AFE2068FEF754FF0246012130464F
:1013C000FFF732FE3878298801290BD1012809D18D
:1013D0000198387002202880454800683C49086020
:1013E0002060DFE70229DBD10128D9D101983F49EC
:1013F000086000982880FFF70FFD0028FBD111E05E
:1014000033480068FEF72DFF02460026304631467D
:10141000FFF70AFE2068FEF724FF0246012130464E
:10142000FFF702FE3878298801290BD1012809D15C
:1014300001983870022028802D48006824490860EF
:101440002060DFE70229DBD10128D9D101982749A3
:10145000086000982880FFF7DFFC0028FBD15EE7DA
:1014600000981F490870FFF789FB0028FBD1FFF7A0
:101470003BFC0028FBD1FFF70BFB0028FBD1FFF75B
:10148000CBFC0028FBD147E701981449087000986D
:1014900013490870FFF772FB0028FBD1FFF724FC0B
:1014A0000028FBD1FFF7F4FA0028FBD1FFF7B4FCCA
:1014B0000028FBD109490878401C0870C0B20428F4
:1014C000E8D329E7B0120A4000E100E004580840E0
:1014D0008C00202090002020950020208A002020D1
:1014E00082002020880020200800202000002020EA
:1014F0000C00202010B564247D200002FEF767FF59
:10150000641E2004F8D1022000F006F8FFF75CF812
:101510000020FFF7CEF910BDF0B581B004463F487A
:10152000002606803E4804703E4806803E48012161
:1015300001703E4801703E4806703E4801703E48CA
:10154000802707803D4801703D48402505803D4883
:101550000670F0433C4908803C490880AE20FFF704
:10156000D9F9D520FFF7D6F93846FFF7D3F9A820E7
:10157000FFF7D0F93F20FFF7CDF9D320FFF7CAF9E5
:101580003046FFF7C7F92846FFF7C4F98D20FFF76B
:10159000C1F9012C01D0142000E01020FFF7BAF9A6
:1015A0002020FFF7B7F93046FFF7B4F9A120FFF785
:1015B000B1F9C820FFF7AEF9DA20FFF7ABF9122036
:1015C000FFF7A8F98120FFF7A5F9012C01D0CF2062
:1015D00000E09F20FFF79EF9D920FFF79BF9012C2F
:1015E00001D0F12000E02220FFF794F9DB20FFF783
:1015F00091F92846FFF78EF9A420FFF78BF9A62072
:10160000FFF788F9A020FFF785F9C020FFF782F9DE
:10161000AF20FFF77FF901B0F0BDC0468400202065
:101620007E002020860020209A0020209B00202081
:101630007B0020207A0020208000202078002020BD
:101640007C0020209400202096002020980020205C
:10165000F0B589B017460C460546002110460491A6
:1016600000F03FFA002803940AD105A82D22027049
:1016700028462146FEF7E0FF0120C0074740AD1D88
:1016800002953846FEF79BFD0446FEF7E2FD014653
:10169000384600F02FFB01908448864A8649874DE2
:1016A000874FBC4203DAAC421DDD049F0DE0844944
:1016B000204600F01BF9302102460A4305AB1A70A0
:1016C0004743E41BAC4215D901277F49204600F06F
:1016D0000DF905A9C919024630320A70691C414347
:1016E000641A7D1C09E08C4200DCBEE00F46002538
:1016F000019E06E005A841700225019E6E4FBC4286
:101700000CD97249204600F0F1F805A949190246A2
:1017100030320A70791C4143641A03E005A840196D
:1017200030210170634837466E1C84420DD905464E
:101730006749204600F0DAF80146303105AA915594
:10174000691C4143641A751C03E005A830218155CA
:10175000AD1C574EB4420BD95E49204600F0C6F886
:101760000146303105AA5155711C4143641A02E00B
:1017700005A8302141554D486E1C84420DD90546BF
:101780005549204600F0B2F80146303105AA91557E
:10179000691C4143641A701C03E005A8302181557F
:1017A000A81CE1087C290ED9A1B2C9084B4A4A43BA
:1017B000110D0A46303205AB1A547D22D2004A433D
:1017C000A11A8CB202E005A930220A54411C632CF4
:1017D00010D9A0B28008424A4243500C024630322F
:1017E00005AB5A5464224243A01A84B24E1C092C01
:1017F00006D812E005AA30235354861C092C0CD9B4
:10180000E0B2CD214143C80A0146303105AA9155C5
:101810000A214143601AC4B202E005A83021815573
:10182000761CF5B2303405A844552E49384600F0F0
:1018300063F900280DD12C49384600F003FAFEF771
:10184000BEFC3030B61CF1B205AA5054A8182E21A7
:1018500041700399029BF0B205AA8018049C447061
:10186000D8B2FEF759FF09B0F0BD944203DD15462A
:101870000026019F5CE70E4EB44202DD0025019F69
:101880006AE7844203DD05460026019F78E70D489C
:10189000844202DD0020019F86E7642C019F01DB6A
:1018A000002196E700260A2CAADABAE70F270000E3
:1018B0009F8601003F420F007F969800FFE0F505EC
:1018C00000CA9A3BE703000000E1F5058096980006
:1018D00040420F00A086010010270000C520000034
:1018E0007B140000CDCCCC3D0000204143088B424E
:1018F0001AD3002203098B4279D3030A8B425ED3A9
:10190000030B8B4242D3030C8B4227D30902FF22E5
:1019100012BA030C8B4202D31212090203D0030B3A
:101920008B4233D31AE0D3E0411A8041401C704708
:1019300003460B4371D443088B42F5D300220309BD
:101940008B4254D3030A8B4239D3030B8B421DD3F2
:10195000030C8B4202D394466EE0090AC30B8B4200
:1019600001D3CB03C01A5241830B8B4201D38B03AB
:10197000C01A5241430B8B4201D34B03C01A524150
:10198000030B8B4201D30B03C01A5241C30A8B4293
:1019900001D3CB02C01A5241830A8B4201D38B027E
:1019A000C01A5241430A8B4201D34B02C01A524122
:1019B000030A8B4201D30B02C01A5241CDD2C30994
:1019C0008B4201D3CB01C01A524183098B4201D310
:1019D0008B01C01A524143098B4201D34B01C01AFB
:1019E000524103098B4201D30B01C01A5241C30873
:1019F0008B4201D3CB00C01A524183088B4201D3E2
:101A00008B00C01A524143088B4201D34B00C01ACD
:101A10005241411A524110007047CA0F00D049424A
:101A2000031000D34042534000229C4603098B42DE
:101A30002DD3030A8B4212D38901FC2212BA030A66
:101A40008B420CD3890192118B4208D389019211E8
:101A50008B4204D3890137D0921100E08909C30970
:101A60008B4201D3CB01C01A524183098B4201D36F
:101A70008B01C01A524143098B4201D34B01C01A5A
:101A8000524103098B4201D30B01C01A5241C308D2
:101A90008B4201D3CB00C01A524183088B4201D341
:101AA0008B00C01A5241D9D243088B4201D34B005C
:101AB000C01A5241411A00D20146524110466346B3
:101AC0005B1000D34042704763465B1000D3404236
:101AD00001B50021004201D0C9430846C046C046B6
:101AE00002BD10B500F05AF8EFF30080800001D578
:101AF000012010BD002010BD10B500F079F8EFF303
:101B00000080800001D4012010BD002010BD000025
:101B100070B50125ED0704004C4020D4441A01D2D1
:101B2000001B0919C60D4B00F2B2FF2A29D01B0E6B
:101B30002CD000020C0228432C43D31ADC40051998
:101B400010D2280A02D3401C6D0611D0761EF6056D
:101B50008019FF2A00DA70BDC00DC00570BD694054
:101B600000F0CEF801200543C541521C761CE8E781
:101B700064089C40C90161408900E7D10124A04369
:101B8000E4E71B0E440200D0034870BD002AFCD1DC
:101B9000C00FC00770BD00BF0000C07F0123DB0580
:101BA00002000A430DD4DA4203D49A4207D4884291
:101BB0007047D84214D4D94212D488427047804228
:101BC0007047DA4203D59A42F9D5814270475B00EB
:101BD0004200DA4204D24A00DA4201D2814270471E
:101BE00010B5024AFEF740FB10BD00BF0900130408
:101BF0000123DB0502000A430DD4DA4203D49A42E2
:101C000007D488427047D84214D4D94212D48842AB
:101C1000704780427047DA4203D59A42F9D5814233
:101C200070475B004200DA4204D24A00DA4201D235
:101C30008142704710B5024AFEF716FB10BD00BF87
:101C40000900160470B5420064414B005C41120E5D
:101C500039D01B0E38D0FF2A3CD0FF2B3AD0D218F7
:101C60007F3A40024902400A490A4518ED01060040
:101C70004E43000A090A48430104731A4019190C1B
:101C80004318990F04D05B08012149075B1A521CC5
:101C9000D80904D3401CF50301D19D0607D0FF2AC3
:101CA00008D2D50506D0E4072043401970BD0125B0
:101CB000A843F4E7002A01DCE00770BD2402FF20FE
:101CC0002043C00570BD1B0EFF2A03D0FF2B01D09F
:101CD000E00770BDFF2636064500B54206D84D0028
:101CE000B54203D8D218FF2A00D0E7E7004870BDFC
:101CF0000000C07F70B50125ED0704004C4022D4E0
:101D0000441A02D26C40001B0919C60D4B00F2B2F6
:101D1000FF2A4BD01B0E50D000020C02A8432C43CC
:101D2000D31ADC40051B05D5AD0019D36D08761E0E
:101D3000521E37D0F605280A01D2801970BD7041B5
:101D40006D0603D070BD6940FFF7E8FE9C400902B4
:101D50006140490001D0401E70BD0124A04370BD08
:101D60006D081DD001202B0C01D12D0410302B0E3D
:101D700001D12D0208302B0F01D12D01001DAB0F19
:101D800001D1AD00801CEB0F01D16D00401C361A53
:101D9000121A6D00680AF5054019012A02DB70BDB0
:101DA000002070BDC036300AC00770BD1B0E440253
:101DB00001D1FF2B00D1024870BD002AF0D070BDC8
:101DC0000000C07F0000000000000000002F0000A5
:101DD00000000700070000147F147F1400242A7FEE
:101DE0002A1200626408132300364955225000006D
:101DF0000503000000001C224100000041221C00DD
:101E00000014083E08140008083E0808000000A05E
:101E1000600000080808080800006060000000205A
:101E200010080402003E5149453E0000427F400038
:101E3000004261514946002141454B3100181412BE
:101E40007F10002745454539003C4A49493000018B
:101E50007109050300364949493600064949291EDA
:101E6000000036360000000056360000000814223C
:101E7000410000141414141400004122140800023C
:101E80000151090600324959513E007C1211127C61
:101E9000007F49494936003E41414122007F41418E
:101EA000221C007F49494941007F09090901003E80
:101EB0004149497A007F0808087F0000417F4100BE
:101EC000002040413F01007F08142241007F404034
:101ED0004040007F020C027F007F0408107F003E1C
:101EE0004141413E007F09090906003E4151215E02
:101EF000007F091929460046494949310001017FFF
:101F00000101003F4040403F001F2040201F003F94
:101F10004038403F00631408146300070870080746
:101F200000615149454300007F41410000552A5559
:101F30002A55000041417F000004020102040040D4
:101F400040404040000001020400002054545478F6
:101F5000007F484444380038444444200038444416
:101F6000487F00385454541800087E0901020018B4
:101F7000A4A4A47C007F080404780000447D4000F1
:101F8000004080847D00007F102844000000417FD5
:101F90004000007C04180478007C080404780038B1
:101FA0004444443800FC242424180018242418FC39
:101FB000007C0804040800485454542000043F44A2
:101FC0004020003C4040207C001C2040201C003C65
:101FD0004030403C004428102844001CA0A0A07CB5
:101FE000004464544C4414141414141400000000ED
:101FF00000000000000000000000000000000000E1
:1020000000000000000000000000000000000000D0
:102010000000000000000000008080C0E0E0F0F060
:10202000F0F878783C3C3C3C1C1C1C1C1C1C1C1C08
:102030001C181818303030606040C080000000006C
:102040000000000000000000000000000000000090
:102050000000000000000000000000000000000080
:102060000000000000000000000000000000000070
:102070000000000000000000000000000000000060
:102080000000000000000000000000000000000050
:102090000080C0E0F8FCFEFE3F1F0F0707030101B0
:1020A0000000000000000000000000000000000030
:1020B000000000000000000000000000193C7E7ECF
:1020C0003C180000000000000000000000000000BC
:1020D0000000000000000000000000000000000000
:1020E00000000000000000000000000000000000F0
:1020F00000000000000000000000000000000000E0
:102100000000000000000000000000000080E0FC73
:10211000FEFFFF3F0F03010000000103071F3F7F89
:102120007F7F7F7F7F7F7F7F7F3F7F7F7EFEFCFC87
:10213000F8F0000000000000C0F8FFFFFFFFFFFF05
:10214000FF1F07000000000000000000000000006A
:10215000000000000000000000000000000000007F
:10216000000000000000000000000000000000006F
:10217000000000000000000000000000000000005F
:10218000000000000000000000000000F0FFFFFF62
:10219000FF1F0100000000000000000000000080A0
:1021A000E0F8FEFFFFFFFF7F1F0F7EFCF0800107BE
:1021B0000F1F000080E0F8FFFFFFFFFFFFFF3F075A
:1021C000000000000000F00000000000000000001F
:1021D00000000000000000000000000000000000FF
:1021E00000000000000000000000000000000000EF
:1021F00000000000000000000000000000000000DF
:102200000000000000000000000000001FFFFFFFB2
:10221000FFC0FFF88000000000000000E0F8FEFFB3
:10222000FFFFFFFF1F070100000000031FFFF8C0B2
:1022300000C0F0FCFFFFFFFFFFFFFF1F07000000D3
:1022400000000000E0FF3F00000000000000000070
:10225000000000000000000000000000000000007E
:10226000000000000000000000000000000000006E
:10227000000000000000000000000000000000005E
:1022800000000000000000000000000000010F3FFF
:10229000FFFFFCEFBFFEF8F0C09034F7FFFFFFFF39
:1022A000FFFFFF7C7C7C7C7C7C7C7C7C7C7C7D7FE1
:1022B0007F7FFFFFFFFFFFFFF3F1F0F0E0E0E0C002
:1022C000E0F0FC7F1F0300000000000000000000A1
:1022D00000000000000000000000000000000000FE
:1022E00000000000000000000000000000000000EE
:1022F00000000000000000000000000000000000DE
:1023000000000000000020301018080C0E0607071F
:102310000703070F1F3E7DF7EFDFBF7EFCF8F0F0ED
:10232000E0C0C0808080000000000000000000804D
:1023300080C0C0C0E0E0E0707078B9BDDFDF6F370B
:10234000170B0303070706040C0818100000000011
:10235000000000000000000000000000000000007D
:10236000000000000000000000000000000000006D
:10237000000000000000000000000000000000005D
:10238000000000000000000000000000000000004D
:10239000000000000000000001010307060F0D1BF4
:1023A0001B17373F2F2F3F1F1F1E1E1E1E1E1E1ED8
:1023B0001E1E1E1E0E0E0F07070303010100000064
:1023C000000000000000000000000000000000000D
:1023D00000000000000000000000000000000000FD
:1023E000000000000000000000000000050A0000DE
:1023F000690A0000310B0000310B0000E0FCFFFF18
:10240000E0FCFFFF7CFCFFFF7CFCFFFF08000800F6
:102410006300000022000000270000000000000010
:102420000000000000000000482400000000202000
:102430001800000020010000602400001800202087
:10244000880100004801000088130000C71E00003A
:10245000010000005F760000690A00008497000018
:04000005000000C136
:00000001FF
